8=FIX.4.4|9=35|35=D|453=1|448=PARTY_1|447=I|452=6|10=040|