8=FIX.4.4|9=21|35=A|95=7|96=rawdata|10=086|